:020000040000FA
:10000000F0320020991300001F3A00008513000011
:100010008513000085130000851300008513000080
:100020000000000000000000000000006914000053
:1000300085130000000000008513000085130000F8
:10004000AD150000AD150000AD150000AD150000A8
:10005000AD150000AD150000AD150000AD15000098
:10006000AD150000AD150000AD150000AD15000088
:10007000AD150000AD150000AD150000AD15000078
:10047000AD150000AD150000AD1500007FB502F010
:10048000B8F901A800F0BEFA114B1B68834200D0F6
:10049000FEE769469DF8080002F0A3F9009B039C63
:1004A0001C44019B1D8900F0BFFC661900F0A0FCF4
:1004B00000F0A2FF635983F30888002383F31488B4
:1004C000BFF36F8FBFF36F8F73689847FEE700BF6E
:1004D0009000002021B1012906D06FF0150070476F
:1004E000044B53F830007047024B03EBC0035868CD
:1004F000704700BF184600002DE9F04F9B46D9B069
:10050000764B039038A8DDE963890E461446659F53
:100510001D6800F041FCB8F1000F07D0B9F1000FE1
:1005200004DD4A46414638A803F0DDF84FF00008E4
:1005300033897289D6F80CA013449A44C2453DD839
:1005400038A90CA803F0F5F827B1202238460CA9E9
:1005500003F0C1FA00232246009331464FF6FF73A1
:1005600006A802F047F9074628BB214603980B9ED0
:1005700002F016FA86421ED84FF0FF36DFF860B15F
:10058000DFF860910DF1120304AA05A906A802F094
:100590007FF900280FDB40F09A80059906A802F049
:1005A000C3F910BB4FF6FF71BDF812004E4A32F886
:1005B000023B8B4217D1494B1D688BE0629BAAEB33
:1005C0000809994528BF99465A464B464146204658
:1005D00003F0E7F90028EED14A46594638A803F05F
:1005E00082F8C844AAE79842E1D1BDF81230102B36
:1005F00017D0222B4DD0012BC4D1BDF81030202BA9
:10060000D9D82046059938AA03F0CBF90646002828
:10061000D1D19DF810A0BAF1200F19D94FF0FF36B3
:10062000B0E7BDF81070202FC5D13B462046059994
:1006300038AA03F0B6F90028BDD13A4638A90CA86B
:1006400002F0ACF9DBF800308342B4D1012799E71E
:10065000D9F80030DFF894800393039B9E42DDDAE3
:100660001CA800F099FBD8F804201CA8126858F8C0
:10067000081B03F038F81CA914A803F05AF85246D6
:1006800038A914A803F017FA00283FF47BAF01360D
:10069000E3E7731C3FF476AFD9F80030B342BDDD19
:1006A000BDF81030802B86D82046059938AA03F073
:1006B00078F900287FF47FAFF6B22021BDF8103022
:1006C000009638AA0CA800F013F80546A6E7002FFC
:1006D0003FF471AF284659B0BDE8F08F0400002008
:1006E0009000002020460000FC4800002446000046
:1006F0002DE9F04798B016461D469DF88020394BED
:10070000074653F8321003EBC2035B680391186885
:10071000DFF8D4800144302304AA03A8D8F800905D
:1007200002F09AF9002849D1DDE903431C4421462F
:1007300008AB05AA03A802F0B7F900283ED1069A33
:10074000072A3BD12949079803F0B5F9002835D18C
:10075000099A082A32D126490A9803F0ACF968BBF5
:10076000214604AA03A802F08BF938BBDDE903A3F4
:100770000AEB0302944221D1412B1FD1354430238F
:10078000294605AA04A8049602F066F9A0B9DDE995
:10079000043213449D420FD32A4604A908A802F04C
:1007A000D1F848B92A4604A910A802F0CBF818B924
:1007B0009AF80030042B05D0D8F80090484618B0BD
:1007C000BDE8F08700F0FAF920220090394608AB26
:1007D0000AF1010002F024FE0128EDD1054BD3F807
:1007E0000090EBE7244600000400002023490000AD
:1007F0001A4900009000002002680B4B9A4206D173
:10080000C26803899B1802D24289D21801D3002002
:1008100070478B689A42FAD240F60C6302691A421A
:100820000CBF0120002070473DB8F3962DE9F0433E
:100830000546DFF8009185B02C6E671C51D12A4621
:10084000002305F1630010F8011F99B1661C24D044
:100850002C2101FB0451177D0E7DB7421DD809D311
:10086000577D4E7DB74218D804D3D68AC98A8E42A6
:1008700088BF1C462C3273B1601C10D12E4B1868F7
:1008800005B0BDE8F08300232C4484F864304FF0B9
:10089000FF332B66D0E70123D5E71C46EAE72C237C
:1008A00003FB04532C6619691A6AC905526802D5FC
:1008B0005B689A42E7D12C2606FB0456D6F82080C6
:1008C000404603F09BF8731EF21C13F8011F81428F
:1008D00016D19A42F9D1194B1868D9F800308342E1
:1008E000D1D1144BCBE74FF480734246009331468D
:1008F0002846CDE90277124B0197FFF7FDFD0EE088
:100900002C2303FB04531F6917F01007E3D1414662
:100910003046FFF771FF0028E5D1074B1868054BFB
:100920001B688342D9D000214046D8F8082003F044
:100930004DF8D0E7900000200400002000000020C7
:10094000E8010020F8B50E46002104460846FFF7EE
:10095000C1FD04F12001C0B200F0B4FB0121002070
:10096000FFF7B8FD04F14C01C0B200F0ABFB00236F
:1009700022461946204602F016F8034650BB04F101
:100980002C052A460121204602F00DF8216A204656
:10099000FFF732FFE16C84F864002846FFF72CFF74
:1009A0004FF0FF3384F8650023662046FFF73EFFD3
:1009B0000546124B1B68834216D12C23276E03FB7E
:1009C0000747386A01F013FF30713B6A5B68376094
:1009D000B3600BE0E06C02F0E3FF206A02F0E0FF9E
:1009E000074B1D682846F8BD054B1D68E06C02F0FA
:1009F000D7FF206A02F0D4FFF4E700BF9000002088
:100A00000400002038B5064D04466822002128461F
:100A100003F06CF821462846FFF794FF38BD00BF6D
:100A2000940000200A4619B1024B00211B681847A8
:100A3000704700BF080000200822F0B589B002F01E
:100A40006FF9CB6A002703930B6B0C4604934B6B37
:100A5000064605938B6BCDE901770693CB6B009728
:100A6000079313466A461146104602F067F831466E
:100A70000546304602F062F8216B05440391616B34
:100A800010460491A16B0591E16BCDE90617114663
:100A900002F054F831460544304602F04FF8054460
:100AA000206ACDE904770090606A03970190A06AFC
:100AB0000290A06B0690E06B0790304602F03EF883
:100AC0000544606AD4F838C00090A06ACDF810C020
:100AD0000190E06AD4F83CC00290606BCDE905C09B
:100AE0000390206A0790304602F028F80544E06A37
:100AF000CDE904770090206B03970190606B029022
:100B0000206A0690A06A0790304602F03CF9236BF9
:100B10002D1A0093636B30460193A36B0293E36B32
:100B20000393636A0693E36A0793082302F02BF9A1
:100B3000636B2D1A0093A36B30460193E36B029312
:100B4000236A0393636A0493A36ACDE90537236B91
:100B50000793082302F017F9A36B2D1A0093E36B98
:100B60003046CDE90137636A0393A36A0493E36ACD
:100B70000593636B0793082302F005F92D1A10D42F
:100B80000D4C35B908223146204602F0D5F801282F
:100B90000FD0082322463146304602F0F4F82D1AD1
:100BA000EFE7054A08233146304601F0C7FF2D180C
:100BB000F8D409B0F0BD00BF3046000000487047CF
:100BC0002C4600002DE9F04F002703689DB00293EA
:100BD0004368DFF8BCA103938368DDE90246049310
:100BE000C36805930369DDE904BE0693436907936F
:100BF0008369DDE9062C0893C36998460993089B2D
:100C00000093CD590CAB2DBA5AF8049BDD514FEA35
:100C1000F223A94483EAB213009D83EA72634B4432
:100C200025EA020502EA0C0985EA09052B4443443A
:100C300086EA0B054FEA743888EAB408254006EACC
:100C40000B0985EA090588EAB4580437A844402FFF
:100C500003EB0E054344DE46DDF8008040F088805B
:100C60004FF0100A4B490A9151460AF1010A0DF161
:100C7000700E0AF00F070EEB870757F8407C01F063
:100C80000F094FEAB748019788EAF71801F10E07F4
:100C900007F00F070EEB870757F8407C09314FEA42
:100CA000F74E8EEA774ECDF82CE001F00F010DF1F2
:100CB000700E0EEB81010EEB890959F840EC51F8EA
:100CC000401CBAF1400F7144DDF804E088EADE0808
:100CD000DDF82CE041448EEA972E714405EA0208C3
:100CE0004FEAF52E2CEA050787EA08078EEAB51EBB
:100CF000DDF828808EEA756E774458F804EF49F8DD
:100D0000401C77440F4400994FEA733E394484EA0B
:100D10000607CDF828808EEAB30E07EA030704EA37
:100D200006088EEAB35E87EA080777440F4401EBB2
:100D30000B0ECDF800C0B34622D1029939440160B0
:100D400003991944049B416023448360059B334409
:100D5000C360069B73440361079B2B444361089B5C
:100D600013448361099B6344C3611DB0BDE8F08FE8
:100D7000B346CDF800C0264694461C462A4640E7B6
:100D8000944626462A461C4675463B466CE700BFFD
:100D9000DC4600001847000010B50446C8B17022B8
:100DA000002102F023FD0B4B0B4A0C49C4E9002340
:100DB0000B4B0C48C4E902130B4BC4E9040301209C
:100DC0000A4BA36103F17453A3F52303A3F69243E3
:100DD000E36110BD85AE67BB67E6096A72F36E3CDE
:100DE0003AF54FA57F520E518C68059BABD9831FF6
:100DF000BFF36F8F72B600234FF0FF30094A03F143
:100E000020010133102B42F82100F8D100234FF0CC
:100E1000FF30044A03F160010133102B42F8210036
:100E2000F8D1704700E100E0F8B54FF0FF3600253B
:100E30000127184CC620C4F8086300F035FBE762B0
:100E4000C4F85051D4F85031C4F84C51D4F84C3156
:100E5000C4F82451D4F82431C4F8005504F578348A
:100E60004FF48270C4F8086300F01EFBE762C4F818
:100E70005051D4F85031C4F84C51D4F84C31C4F826
:100E80002451D4F82431044BC4F80055C3F8086346
:100E9000F8BD00BF00600C5000E010502DE9F04795
:100EA000058B04462807904611D4022905F0070552
:100EB00040F0CC80204602F09BFC78B10138218BB9
:100EC000042811D8DFE800F0C2106D8595000129D3
:100ED0000CBF45F0100545F02005258388F31188E7
:100EE000BFF36F8FBDE8F08701F0070AAA4500F055
:100EF000A5800027B9463E46A368002B00F0BC80C1
:100F000041F00801218388F31188BFF36F8FA16836
:100F1000002900F0BA800D68002900F0B680334641
:100F200052462046D1F80480C047002D76D02B6869
:100F300029461D46F0E701F007035A1F012A1BD876
:100F4000002221F00701062B276889B2C4E900229C
:100F500009D13B4603E0628B013262831B68002BA0
:100F6000F9D141F002012046218302F041FC002822
:100F70007AD041F0200176E0042B0AD121F007015C
:100F800089B22046218302F033FC10B141F02001E8
:100F90002183218B01F0070AAA454FD00027B946CB
:100FA000AAE7236921F0070141F00601062DD3F8D5
:100FB000009021832DD1B9F1000F3FD041F00801FD
:100FC000218388F31188BFF36F8F20463949C847C2
:100FD00029E021F00701236941F0040189B2042DC1
:100FE000D3F804902183E6D000274FF0040A3E4650
:100FF00082E721F00701236941F0050189B2052D3F
:10100000D3F808902183D6D000274FF0050A3E463A
:1010100072E700274FF0060A3E466DE72B4687E74A
:10102000B9F1000FD1D1EFF31188202383F3128897
:10103000BFF36F8F238B23F008032383258BEA06EE
:101040002ED525F01003238305F007056669218B53
:10105000002EBFF670AF00232768C4E9003321F0EB
:10106000070141F001012183218B4FF0000901F0BC
:10107000070AAA457FF440AF002F9CD041F0080139
:10108000218388F31188BFF36F8F002FC8D03D688C
:10109000394633465246204602F0D6FB2F46F4E747
:1010A000AB067FF51BAF25F02003238305F0070572
:1010B00000E700BF75380000014B03600020704757
:1010C000E047000070B5104B0D461C68B4B10F4BE3
:1010D000196800238B4202DB6FF0010070BD2246CD
:1010E00012F8106B864202D014460133F2E7E06832
:1010F00002F0A8FD28B100202C60EFE76FF00C0093
:10110000ECE76FF01200E9E70C000020E047000078
:1011100030BFFFF7FDBF00BF154B9A6A12F0007F8A
:101120009A6A14BF1E201D2012F0807F9A6A18BF91
:101130001F2012F4801F9A6A18BF202012F4002F7B
:101140009A6A18BF212012F4802F9A6A18BF2220B1
:1011500012F4003F9A6A18BF232012F4803F9A6A63
:1011600018BF24206FEA02426FEA12429A62704767
:1011700000ED00E010B5184B0246986A9C6A10F426
:10118000805F14BF1720162014F4006F9C6A18BFEC
:101190001820A40508D5986A000404D51AB19A6AE3
:1011A00022F400429A6219200B4B9A6A12F4806F63
:1011B0009A6A18BF1A20D2050CD49B6A13F4005FF8
:1011C00018BF1C20044A936A43F47F4393620023B0
:1011D0000B7010BD1B20F5E700ED00E010B51C4BB7
:1011E0000246986A9C6A10F0100F14BF112010205C
:1011F00014F0080F9C6A18BF1220A40709D5586B79
:10120000986A000604D51AB19A6A22F080029A629E
:1012100013200F4B9A6A12F0010F9A6A18BF14201C
:1012200012F0200F9A6A18BF1520D40658BF9B6A87
:10123000074B9A6A920642BF5A6A22F400525A62D7
:101240009A6A42F0FF029A6200230B7010BD00BF41
:1012500000ED00E070B5444B06465B6800258AB09F
:10126000C3F3080385F31188BFF36F8F02F07F404B
:10127000B0F17F4F11D102F00C0008280DD01007FB
:101280004CBF0E4601250022033B8DF80720032B9F
:1012900005D8DFE803F01E5C60592E46F3E7002412
:1012A0009DF807309BB92022314602A802F013FCBA
:1012B000099B002D53D0C3F3080222B96FEA5323D0
:1012C0006FEA43230993204602A902F09EFB0AB06D
:1012D00070BD254BDA6A9107E1D4DA6A002ADEDBB9
:1012E000DA6A5200DBD55A69B16942F480725A61F8
:1012F000BFF34F8FBFF36F8F5A6931F8021C22F48E
:1013000080725A61BFF34F8FBFF36F8F4DF6027239
:10131000914209D09A6AD2B242B101200DF107017F
:10132000FFF75CFF0446BBE73468B9E79A6A12F43A
:101330007F4F05D001200DF10701FFF71BFFF1E7FB
:101340009B6AB3F5803FAAD3FFF7E6FEEAE70020E9
:101350000DF10701E4E700200DF10701EDE723F4AB
:10136000FF7323F00103ADE700ED00E0044B5A6981
:1013700042F010025A615A6922F008025A6170471D
:1013800000ED00E0EFF30880EFF3098101B572464C
:10139000FFF760FF01BD00BF002080F31488BFF39A
:1013A0006F8F002080F30A8880F30B880F4880F34A
:1013B000088800F077FD00200D490860BFF34F8FCB
:1013C00000F02CF8202080F311880A484FF40061C7
:1013D000401880F30988EFF314800221084380F35A
:1013E0001488BFF36F8F00F097F80000F0320020F0
:1013F00094ED00E0F0020020002318460649D1F8E1
:101400009020C2F30722934200DB7047C1F8983066
:10141000C1F8A0000133F6E700ED00E010B572B6A8
:10142000002484F31388FFF7E7FF23464FF0FF30D3
:101430000C4A03F120010133102B42F82100F8D1AE
:1014400000234FF0FF30074A03F160010133102BF6
:1014500042F82100F8D162B6BFF34F8FBFF36F8F10
:1014600010BD00BF00E100E01EF0040F0CBFEFF361
:101470000880EFF30980816911F8021C0229FFD06E
:1014800001B5724602F0C7FA01BD00BF00B20028E4
:1014900007DB01234109034A00F01F00834042F8A3
:1014A0002130704700E100E000B200280CDB01228F
:1014B0000649430900F01F008240203341F82320F1
:1014C000BFF34F8FBFF36F8F704700BF00E100E0A5
:1014D000054B420953F82220012300F01F0003FAB4
:1014E00000F01040704700BF00E100E000B20028AB
:1014F00001F10101ACBF00F16040064B4FEA411120
:10150000C9B2ABBF00F5614000F00F0080F80013D6
:101510001954704714ED00E00B4A08B50B4B22F04C
:101520007F029A60BFF34F8FBFF36F8FD3F888208D
:1015300022F47002C3F8882001F080F801F0C0F8AE
:1015400000F024F801F086F80000000000ED00E053
:1015500080B50C4607461546064E86F309884FF0BF
:10156000000005498847204629461A46B8470348DF
:101570008047FEE7F0320020373A0000453A00008D
:101580001022014B1A61704700ED00E0002320207B
:1015900040F20F1210B5044CE1180133934281F868
:1015A0000003F9D110BD00BF00E100E008B5EFF382
:1015B0000583064A103B02EBC30152F83300496829
:1015C0008847BDE8084002F031BA00BF3C3D00004A
:1015D0000121024B024A034800F0ECB800F002205F
:1015E000000000208448000010B50C7A0B6804F05D
:1015F0001F0223F01F031A43CB68640923F01F0363
:10160000054943EA440343F00103C1F89800C1F8D7
:101610009C20C1F8A03010BD00ED00E010B5074BD4
:10162000D3F89030C3F30723013B984202D8FFF769
:10163000DBFF10BD6FF01500FBE700BF00ED00E021
:101640002DE9F04F0F46144606464FF000084D4D69
:1016500085B0B84580F29280D6F80490B9F1000FB9
:1016600036D0B9F11F0F40F2878019F01F0F40F0FC
:101670008380D6F800A01AF01F0F7DD1504602F0EB
:10168000F8F9834609EB0A00013802F0F2F98345C4
:1016900072D11BF1160F6FD05C456DDDC5F898B0A7
:1016A000D5F89C10C5F898B0D5F8A03021F01F01EE
:1016B00043F01F0AD6E900321A44994202F1FF3979
:1016C0001ED1CA4508D131465FFA8BF002F0DAF933
:1016D00008F101080C36BCE73146C5F898B0D5F8DA
:1016E0009C3022F01F0203F01F031343C5F89C3007
:1016F000E0B202F0C7F910F1160F3DD0441CE7E745
:10170000C5F898B0D5F8A020013B23F01F0302F0E4
:101710001F021343CA453146E0B2C5F8A030E8D0F5
:1017200002F0B0F910F1160F26D0C5F898B0D5F830
:101730009C209DF808300AF1FF3A62F304038DF80B
:101740000830D5F8A0309DF808205B0863F34712F5
:101750008DF80820D6E900321344009323F01F03CC
:101760005344A3EB0903013023F01F036946C0B2C1
:101770000393FFF753FFBEE76FF01504204605B053
:10178000BDE8F08F00ED00E00522044BC3F8942083
:10179000BFF34F8FBFF36F8F704700BF00ED00E0C6
:1017A000BFF35F8F0022024BC3F89420704700BF45
:1017B00000ED00E010B5034C2278FFF741FF2070E8
:1017C00010BD00BFE8020020F0B54149414CD1F8FE
:1017D00090302568C3F307239D4287B075D8002059
:1017E000FFF7DEFF3C4BC1F8C030854216D13B4CC1
:1017F00001A82570FFF760FC00250646384FAE4271
:1018000013D1002023783249D1F89020C2F3072267
:10181000934254DBFFF7B8FF00202FE0616801EB33
:101820000011FFF7E1FE0130DFE70199280101EB2C
:101830000513DA683A40B2F5001F21D0B2F5800FE7
:101840002BD0B2F5801F38D15A689B680958013BEC
:1018500022F01F0003440120844623F01F0340EAC6
:101860004C10CDE902218DF8100002A920780593D3
:10187000FFF7D4FE00281DDA6FF0150007B0F0BDA9
:101880005A689B680958013B22F01F0003444FF03F
:10189000020C012023F01F03E1E75A689B680958F6
:1018A000013B22F01F0003444FF0000C022023F004
:1018B0001F03D4E723780133237001359FE7C1F874
:1018C0009830C1F8A00001339EE74FF0FF30D5E714
:1018D00000ED00E090480000AAFF4400E80200206C
:1018E0000000F0FF264B274A27481A6041F6F8739C
:1018F000D0F82416C1F3080282F48072883203EA19
:10190000513303EB4203590A204ADB0548BF01313A
:10191000C2F80419D0F820364FF47A60C3F30801F6
:10192000C3F30943434341F64C5081F4807101F203
:10193000172100FB01334FF47A701B0AB3FBF0F15F
:1019400000FB1133B3F5FA7F28BF01310E4BC2F80B
:101950001C17D3F840131C290CD1D3F84433012BA6
:1019600008D13423C2F82436D2F83C3623F40023BD
:10197000C2F83C360122054B0020C3F80026704710
:101980001C0000200020A10700C0FF000000125032
:1019900048B1054B054A1B68B3FBF2F35843044BAF
:1019A00043F00103184770471C00002040420F001D
:1019B00000460000084B70B5C31A0D4607499B103E
:1019C000044659434022064802F0A2F82B4601463D
:1019D0002046BDE87040184710010020B76DDBB607
:1019E000143D0000402373B50B4C0093041B0B46C1
:1019F0000D460A49A41061430646094A094802F007
:101A0000B3F8011E05DA30462B4602B0BDE870403F
:101A1000184702B070BD00BF10010020B76DDBB6E3
:101A2000D93B0000143D000010B5EFF311842023D2
:101A300083F31288BFF36F8F074A136823F0020104
:101A4000DB07116002D4012002F0F5F884F311885D
:101A5000BFF36F8F10BD00BF6001002070B5002282
:101A60000121044640F20510FFF740FD0F4800F049
:101A700021FB0F4B984215D100F02CFB26690D4934
:101A8000304601F004FF00280BDB01253564246992
:101A9000084904F11C0001F0FAFE002801DB0020D7
:101AA000E56470BD6FF00400FBE700BFF73B00008A
:101AB0000000AD0BB84800000C22104B014602FBA1
:101AC0000033002030B4D3E90E529863EFF3118055
:101AD000202484F31288BFF36F8F1C6C04F0C004C1
:101AE00044F002041C6480F31188BFF36F8F1DB1B2
:101AF0002B4630BC0248184730BC7047100100200C
:101B0000143D000010B4EFF31182202383F31288F8
:101B1000BFF36F8F1648016841F002040460C807E4
:101B200007D482F31188BFF36F8F012010BC00F03F
:101B3000E7BA1049D1F80C14C903F2D5EFF31180BC
:101B400083F31288BFF36F8F0B490B6C03F0C00354
:101B500043F002030B6480F31188BFF36F8F82F3AD
:101B60001188BFF36F8F002010BCFFF7A5BF00BF27
:101B70006001002000E01050100100202DE9F84322
:101B8000012207463249D1E8EF3FC1E8E02F0028A3
:101B9000F9D133B92F4930484B60CB608A6001F0EE
:101BA00089FE7B1E012B2AD8012F06D12B4BD3F89F
:101BB000503403F00303012B21D002F085F80546D1
:101BC000F8B9274B1B78E3B104220646234BC3F830
:101BD00008234FF00108214CDFF88890D4F84C24FA
:101BE000D4F84C34D20315D503F00303012B01D0F4
:101BF000012F0FD135B386F31188BFF36F8FBDE886
:101C0000F883EFF31186202383F31288BFF36F8FDD
:101C10000125DEE7304601F01DFFD4F8403413F013
:101C2000FF03DBD1D4F80821002AD7D0C4F808314B
:101C3000D4F808312023C4F84084C9F8A031C4F88E
:101C40001080CBE70422054BC3F80423D7E700BF7D
:101C50000C010020FC0000202C01002000E01050AE
:101C6000E902002000E100E00023024A0020C1E96F
:101C7000002370470050160000487047D448000009
:101C8000024B0B6001231360704700BFDC4800006B
:101C9000024B034A0020C3F80C25704700B00450E3
:101CA0008000008070B5164D1446A84225D8C0F5B6
:101CB000B21303F580539A421FD8C2B140F2011308
:101CC000104DC5F80035A1B101F005FFBFF35F8FDE
:101CD000D5F81834DA0705D4230703D00123AB6005
:101CE000BFF35F8F4FF48072064BC3F800250020CE
:101CF00070BDFF2101F0FAFEE8E76FF01500F7E78D
:101D0000FF4F160000B0045010461A46084B10B59D
:101D1000994209D8C1F5B21404F58054A24203D8FF
:101D200001F0D9FE002010BD6FF01500FBE700BFE9
:101D3000FF4F160073B514461D46684600F0EEFAD4
:101D4000009BA342019BAB4114D30B4AD2E9006133
:101D5000A41B24F01F0365EB010064099B1941EBF0
:101D6000000144EAC060C2E9003102B0BDE8704041
:101D700000F0EABC02B070BD8000002010B5002267
:101D80000121E420FFF7B2FB002000F0FFFA0B4B2B
:101D9000044698420CD10A4800F0F2FAA0420AD157
:101DA0006722084B02201A60FFF7E8FE002010BDF2
:101DB0004FF0FF30FBE76FF00B00F8E70000AD0BD2
:101DC000180000206401002007B5684600F0A6FA5C
:101DD0000098074AD2E90032C01A019B4FEA50101E
:101DE00063EB020340EAC36003B05DF804FB00BF8D
:101DF000800000207FB5431C18BF20EAE07502A8D0
:101E000008BF6FF0004500F089FA02990E4B2020C0
:101E1000D3E900268C1A039961EB06032146C5FB22
:101E20000013402973F1000436BF014621F01F0161
:101E3000002352184FF0010146EB030300910348C1
:101E400000F03AFB04B070BD8000002010000020BC
:101E5000064BD3F840231C2A05D1D3F84403431E74
:101E60005842584170470020704700BF00C0FF0033
:101E700003689A070CD50368DB070DD50922074BC9
:101E8000C3F80C250F22C3F8042501221A60FEE7CF
:101E9000034B0360EF3B0360704700BF00801050AE
:101EA000F000FA50012208B5334B3448C3F800283B
:101EB000FFF7DEFF0830FFF7DBFF0830FFF7D8FF42
:101EC0000830FFF7D5FF00F5F470FFF7D1FF2C4A7B
:101ED000D2F88C3043F44063C2F88C300022D30037
:101EE00003F57F0303F54043D3F8001401310AD012
:101EF000D3F8001439B1D3F800140132D3F8043404
:101F0000402A0B60EBD11C4BD3F840247AB3FFF787
:101F10009FFF48B11B4BD3F834231B4B9A429EBF03
:101F2000154B1A4AC3F84026FFF792FF18B1184B19
:101F3000184AC3F8AC27FFF78BFF48B134220E4B89
:101F4000C3F82426D3F83C2622F40022C3F83C260A
:101F50000323114A0A49C2F81835D1F88C3043F4EA
:101F60004063C1F88C300023C2F8A03508BDC822F8
:101F7000C3F84024CBE700BF0000125000C50D504D
:101F800000ED00E000C0FF00001D0A1840E0A91E9F
:101F900000A0085078000A0400B0045030B504686E
:101FA000ACB1B4FA84F30122C3F11F03DBB29A404F
:101FB00024EA0202D0E8EF5FA54204D1C0E8EC2F8A
:101FC000BCF1000FF6D1EAD102480B7030BD0248D7
:101FD000FCE700BF0000AD0B0200AD0BF7B50646F5
:101FE00048B3012825D104224FF4807371202F4972
:101FF0000024C1F80803012002F1A04203F1A0432C
:1020000003F5871302F5871210601C601B68284BCC
:10201000D3F840331C2B13D0864201D10DF10704B5
:10202000002342F21075214F8DF8073066B1012E62
:1020300028D003B0F0BD14224FF484730420D6E7F7
:10204000012EEDD1CE60E9E7D7F84C3403F48033AC
:102050003CB9002BEDD0012001F0EBFD013DF3D1A7
:10206000E7E7D7F84C2402F003022270002BE0D0FF
:102070009DF80730002BDCD1012001F0DAFD013D95
:10208000D4D1D6E7D7F80C3403F480333CB9002B15
:10209000CFD0012001F0CDFD013DF3D1C9E7002BE8
:1020A0000CBF012300232370E2D1C2E700E01050EF
:1020B00000C0FF00044B1A7922B9012218601A717E
:1020C0000248704702487047680100200000AD0BCD
:1020D0000C00AD0B08B5084B1B6843B140F205106E
:1020E000FFF7F6F918B940F20510FFF7CFF9002213
:1020F000024BC3F8402408BD6801002000E01050E6
:1021000010B510B1012845D010BD324BD3F84C1496
:10211000D3F84C24C80324D502F00303012B04D0C8
:1021200013B10020FFF75AFF00232A4A0420C2F807
:10213000403410224FF48473002103F1A04303F5CF
:10214000871319601C68012402F1A04202F587126E
:102150001460214A1268002A36D01E4BC3F80403CB
:10216000D2E7D3F84824D107DED5D3F8502492071C
:10217000D7D4194A12681AB10422C3F80423C3E75A
:10218000D3F80821002AFBD00022C3F80821D3F895
:102190000831B9E700220F4BC3F81021D3F8101112
:1021A000C3F81821D3F81811C3F81421D3F8142157
:1021B0000A4AD2F840231C2A04D000224FF480732C
:1021C0007120B9E79860F8E71A68002AFCD0196016
:1021D0001B6899E700E010506801002000C0FF0074
:1021E00070B500251D4C1E4ED4F80C3303B970BDDC
:1021F000B3FA83F3C3F11F039A0002F5807292B21F
:1022000002F1A04202F58712156012680122D8B2CD
:1022100002FA03F3DBB2102BC4F8083311D0402BC1
:102220001AD0042B15D1D4F84C14D4F84C148907C7
:102230000FD1C4F84024C4F804332261D4F80C331D
:10224000D4E77571C4F81451D4F814312023C4F8BC
:10225000043333689847F1E77571FAE700E01050EE
:102260006801002070B5002367240126027A94FAE1
:10227000A4F1B1FA81F1914203F1010518D10021D5
:102280000C24120102F1A04202F56222C2F82C15C0
:102290000A4ADBB204FB03230168D9604168196173
:1022A0000121007A1875936881400B43936070BDDB
:1022B00006FA01F12B4624EA0104D8E720000020A9
:1022C000074B027AD3F8101521F001010A43C3F835
:1022D00010250268C3F8A4264268C3F8AC267047EC
:1022E00000200E50012303FA00F010F0670F0AD00F
:1022F000064B5B68DB4303F067030342044B05486E
:1023000018BF184670470448704700BF20000020DF
:102310000000AD0B0400AD0B0800AD0B0023002244
:102320002DE9F048C0E90023114BD3F810359B0785
:102330001CD5EFF31181202383F31288BFF36F8F35
:102340004FF0FF356FF040440A4ED6E900BC5D45C2
:1023500074EB0C07F9D3CCF31303C0E900B381F39A
:102360001188BFF36F8F0448BDE8F0880348FBE78E
:1023700000200E5040270E500000AD0B0100AD0BA9
:1023800001460148FFF70ABE24000020F0B53F4C8B
:1023900085B02578002D75D13D4A01AB07CA83E889
:1023A00007003C491846D1F8102522F00202C1F876
:1023B0001025FFF785FF0723672202F0010129445A
:1023C000013BCDB24FEA5202F7D1052D5CD11A463E
:1023D00001272E48002567265FFA82FC96FAA6F1AF
:1023E0005FFA85FEE645B1FA81F145D30132052A4F
:1023F000017500F10C00EDD10120002526499A0855
:1024000000FA02F212F0670F1CBF5D505A580433F5
:10241000302BF4D1E420FFF739F81E4B1F49D3F8D5
:10242000182703F5C07322F4403242F48032C3F817
:102430009825D3F8902322F00202C3F8902340F6A7
:10244000FF72C3F8A82100221A60A3F5807004333C
:102450008B420260F8D101250E4B114A1D66114BCB
:102460005D201B68B3FBF2F358430F4B2B43984797
:102470000E48257005B0F0BD07FA01F126EA010605
:102480000135ABE70A48F5E70A48F3E720000020EA
:10249000F045000000200E5000210E50B0210E50DB
:1024A00040420F001C000020104600000000AD0B51
:1024B0000C00AD0B0100AD0B2DE9F0410446007A94
:1024C0001D46FFF70FFF1A4B1746984206469DF828
:1024D000188029D12046FFF7C5FEEFF31180202395
:1024E00083F31288BFF36F8F227A124B920013444A
:1024F00000221A60217AC5F31305090101F1A041F8
:1025000001F562211B68C1F82075C1F8245580F3DC
:102510001188BFF36F8FB8F1000F05D00123227A25
:102520009340054AC2F824333046BDE8F08100BF2D
:102530000000AD0B00210E5000200E50F7B5254ACB
:10254000002053689268DB4303F0670313401C4686
:10255000012607460CBB01271F4B1E4DD3F82063F5
:102560000640287D07FA00F333420FD0E96869B1CD
:102570000201D5F810C002F1A04202F56222D2F8A1
:102580002435D2F82025CDF800C088470134052C29
:1025900005F10C05E5D103B0F0BD94FAA4F5B5FA48
:1025A00085F5AA0002F58071920806FA02F213423C
:1025B0000BD001F1A04101F56221D1F800C0BCF1BE
:1025C000000F02D00F600968104306FA05F524EAEF
:1025D0000504BFE72000002000200E5038B5094B4D
:1025E00053F82040013053F82050A54200D838BDA0
:1025F000636823B1204601F04AFB0834F5E72368FD
:102600009847FAE7E4480000012208B5094B032087
:102610001A70FFF7E3FF01F06CFB01F054FB04209C
:10262000FFF7DCFFFDF72AFF034A137B23F00103CA
:10263000137308BDE90200207001002008B50348AB
:10264000034A0021121A01F03AFB08BD8000002065
:10265000EC02002008B50020FFF7C0FF154B83F304
:1026600008880025E023144C84F82230E57725768D
:102670006576A576636A43F4E023636284F82350A9
:10268000FEF774FEFEF77CFF4FF0FF33A362E362B8
:10269000FFF79AF8FEF79CFF01F0D3FA0120FFF74D
:1026A0009DFF0220FFF79AFF2B462A462946034842
:1026B000FEF74EFFF00A002000ED00E009260000C2
:1026C000074808B5074A0849121A01F0FAFABDE8A6
:1026D00008400648064A0749121A01F0F2BA00BF3C
:1026E0000000002080000020BC4900000000002005
:1026F00000000020BC490000024B1868984208BF47
:102700000020704774000020034B1B680BB9FFF7D3
:102710005BBB0020704700BFE401002048B1094BBB
:102720005B68984205D003681BB1DA68C1680A4447
:10273000DA60D0E9003213605A600023C0E9003348
:10274000704700BF740000202DE9F041EFF31185C0
:10275000202383F31288BFF36F8F1F4E4FF00008C2
:102760003060FFF7C9FF1D4F3268D7E9003120B153
:10277000C468944213DDA41AC4600024D31841EB4A
:10278000E271C7E90031346001F0A4FA2146FFF795
:1027900031FB85F31188BFF36F8FBDE8F081E3183B
:1027A00041EBE471C0F80C80C7E90031FFF7B6FFD8
:1027B00085F31188BFF36F8F83689847EFF3118516
:1027C000202383F31288BFF36F8F33681B1B3360A2
:1027D000FFF792FFC8E700BFE40100208800002057
:1027E000704708B9086070476FF015007047002007
:1027F000704770472DE9F7430E4617469946044641
:1028000028B94FF0FF38404603B0BDE8F0830029F7
:10281000F7D0002AF5D0CB680D8938461D44042333
:1028200029460DEB030201F0BCF880460028E8D1F0
:1028300046F60812BDF804107389914225D1BDF8FF
:1028400006109942DDD1042338460DEB03022944DA
:1028500001F0A7F80028D4D146F60713BDF80420EC
:102860009A42CED1C4E900679DF82830A4F80890B8
:10287000A3727389BDF806202B44E3607389134467
:102880002B44043563612561BDE7002BE4D0B8E734
:102890002DE9F3410E4617461D46044620B94FF078
:1028A000FF3002B0BDE8F0810368002BF7D0436829
:1028B000002BF4D04FF6FF78D4E904239A4216D2C5
:1028C00023685B8923B1E368934204BF0433236127
:1028D0000423216960680DEB030201F062F800280F
:1028E000DDD1A37A2BB1D4E903329A4201D301207E
:1028F000D7E72389BDF80610434501F1040203D050
:10290000BDF804C09C450BD115B1BDF804302B8037
:102910002369043333603980236913442361C0E79A
:10292000236913442361C7E748B103683BB1436897
:102930002BB1C068884294BF0020012070474FF03F
:10294000FF30704773B50C460646114602232046F9
:1029500001AA00F081F80546E8B9019A1F2A0ED9AC
:10296000A2F12001304620222368194401F0B3F877
:102970002368019A13442360284602B070BD0146C3
:10298000C2F12002304601F0B1F8019A2168C2F18B
:1029900020003044EAE76FF00205EDE701F08BB864
:1029A000084601F03FB908B52C2303FB01002023A2
:1029B0000021006A00F0F5FF003818BF012008BDB3
:1029C00070B50368CD1A002D02DC6FF05F0070BD9A
:1029D00093F900601C78002E0ADB5C1C04601B78F5
:1029E00013600368C91A13688B42EED80020EEE723
:1029F00004F07F04013C032C2BD8DFE804F0020A2A
:102A00001421012DE1D05B78136003680233036069
:102A1000E7E7022DD9DDB3F801305BBA9BB2136052
:102A200003680333F3E7032DCFDD9C785D78240240
:102A3000DB7844EA05442343136003680433E6E784
:102A4000042DC2DDD3F801301BBA136003680533CF
:102A5000DDE76FF06300BAE770B404680E1B002E68
:102A600007DD26789E4208D10134046070BCFFF770
:102A7000A7BF6FF05F0070BC70476FF06100FAE7AE
:102A800038B503230446FFF7E7FF18B9136813B9F5
:102A90006FF0670038BD013B136023681A78002A85
:102AA000F6D101332360F5E72DE9F34190461F4647
:102AB00001AA302305460E46FFF7CEFF0446F0B9C3
:102AC0002B68F61A002E34DD42461B78284642F861
:102AD000043B2E68019B1E4431460623FFF7BCFFD2
:102AE000044660B92B68D8F80420C8F80830991853
:102AF000B142296007D10C213846FDF793FF2046EB
:102B000002B0BDE8F0819B5C3A4642F8043B2B687A
:102B10003146013328462B60FFF752FF60B92B681E
:102B20007A68BB601344B34218BF6FF065042B6032
:102B3000E5E76FF05F04E2E70446E0E7F0B5002464
:102B40000646204665B2AB4200DCF0BD51F8247069
:102B500052F824503D440544AF4200F0010018BF34
:102B6000002046F8245088BF40F001000134E9E716
:102B7000002300EB8101884200D3704751F8042DF7
:102B800043EA52030B60D307F5E770B503680546C7
:102B9000DB07144604D4BDE870401146FFF7E8BFD8
:102BA00013460A460146FFF7C9FF06462146284656
:102BB000FFF7DEFF46B104F18044013C55F82430B4
:102BC00043F0004345F8243070BD4FF0000C2DE970
:102BD000F74F654664464FFA8CF94B4516DC4FF0CB
:102BE000FF364FF0000806EB43060196019F53FAAB
:102BF00088FE4FFA8EFEBE455FFA88F628DB00EBB2
:102C0000C30040F8044C03B0BDE8F08F4FF0000E55
:102C1000F04602EB8C0A51F82E705AF804694FF016
:102C2000000BA6FB076736196F4128BF4FF0010B59
:102C30000EF1010E34464FFA8EF64E453D46D8440D
:102C4000E9DD40F82C4045463C460CF1010CC2E75A
:102C5000A9460025013676B202EB8E0A77B2BB4256
:102C600005DC40F82E4008F101084C46BEE76FF045
:102C70000307774351F826C05AF807704FF0000B4E
:102C8000A7FB0C7C3F195CEB090C28BF4FF0010B34
:102C9000E1463C465D440136E0E7002310B51C46A2
:102CA0005AB2914200DC10BD40F823400133F7E7EF
:102CB00000231A4610B55CB2A14203DCB2FA82F0DE
:102CC000400910BD50F8234001332243F3E70123AC
:102CD0004A1150F8220001F01F018B401840704744
:102CE0004B1E10B55BB2041D1A0603D45A1E54F8CD
:102CF000221071B101335BB283B103F18042013A1A
:102D000050F82210002231B9013B02EB431210B2FD
:102D100010BD1346E8E749080132F4E71846F7E723
:102D2000002310B55CB2A24200DC10BD51F8234074
:102D300040F823400133F5E710B5013A52B21306CB
:102D400001D5002010BD50F8224051F822309C429D
:102D500005D802F1FF32F2D24FF0FF30F2E7012046
:102D6000F0E7002330B5013A52B2140603D5181E1D
:102D700018BF012030BD50F8224051F82250013ACE
:102D80006C402343F1E7F0B5002406469C462046FC
:102D900065B2654500DBF0BD51F8247052F824306F
:102DA0003D1AED1AAF4200F0010018BF002046F8AE
:102DB000245038BF40F001000134E9E770B59DF9B7
:102DC00010601D4633460446FFF7B8FE30B9324660
:102DD00021462846FFF7B0FF012807D033462A4690
:102DE00021462046BDE87040FFF7CDBF70BD70B5ED
:102DF0009DF910601D4633460446FFF7C4FF38B105
:102E000033462A4621462046BDE87040FFF796BE6D
:102E100070BD2DE9F04F1D46A5B014ABCDE90231D0
:102E20000190294610461746FFF75AFFC0EB85145C
:102E300024B22146002CB8BF04F11F01634203F005
:102E40001F0341F3471104F01F0604A858BF5E4258
:102E5000FFF723FF002E4FEA81002DDD002204AB97
:102E600018441346C6F1200E9D421AD8012604AB21
:102E700003EB850300936F1E24AB4FEA45084FEA2E
:102E8000850903EB8707002C53DA24AB03EB860696
:102E90002A4656F8881C0198FFF742FF25B0BDE886
:102EA000F08F57F823C001330CFA06F10A4340F8BB
:102EB000042B2CFA0EF2D7E704AB2A463946184405
:102EC000FFF72EFFD2E75AF8883C0CF1010C53F8BB
:102ED000202024AB03EB800353F8803C0B44D31A2F
:102EE00034BF4FF0010B4FF0000B9A4218BF594608
:102EF0005EF8882C42F820304FFA8CF04045E2DB37
:102F0000731A5E42294604A85E41FFF731FE09F1BB
:102F100090036B4453F8802C57F8803C294643EAD1
:102F2000C2730098013C47F8803C24B2FFF720FEB2
:102F3000A9E74FF0000C24ABC6F1010E614603EB8C
:102F4000860A03EB8E0ED7E730B504461D4691B0D6
:102F500068469DF95030FFF738FE2A4669462046FC
:102F6000FFF757FF11B030BD30B505461C4691B094
:102F7000684693F90030FFF728FE69462846D4F8E2
:102F8000AC30984711B030BD13460A46FFF7ECBF8E
:102F90002DE9F04793F900600446894692B0314626
:102FA000104615461F46FFF783FE002840F091802B
:102FB0003A46494602A8FFF7E7FF3B46214602AAE8
:102FC0000AA8FFF7D1FF02A908463A46FFF7DCFF3F
:102FD0003B462A4649464846FFF7C6FF07F1040824
:102FE0003A4629462846FFF7CFFF43462A46214660
:102FF00020460096FFF7E2FE43462A462946284629
:103000000096FFF7DBFE43462A46214628460096F7
:10301000FFF7EDFE3B462A4621462046FFF7A4FF78
:1030200043462246214628460096FFF7C7FE434600
:103030002A46214620460096FFF7C0FE2368DB079C
:103040004AD53346424621462046FFF777FD824661
:1030500031462046FFF78CFD06F18043013B54F8D2
:10306000232042EACA7244F823203A4621462846E1
:10307000FFF78AFF4346294628460AAA0096FFF72B
:10308000B6FE4346294628460AAA0096FFF7AFFE39
:103090000AA9084643462A460096FFF7A8FE3B4683
:1030A000214620460AAAFFF75FFF02AA43461046C0
:1030B00021460096FFF79BFE324629462046FFF741
:1030C0002FFE49462846FFF72BFE484602A9FFF788
:1030D00027FE12B0BDE8F08731462046FFF748FDD5
:1030E000C3E72DE9F04115468AB004460E461C227E
:1030F000002103A800F0FAFC032395F900802A467A
:10310000314620462F1D0293FFF73EFF3B462146E6
:10311000204602AACDF80080FFF769FE2B46324612
:1031200021462046FFF720FF3B4621462046CDF8AA
:10313000008005F18402FFF741FE0AB0BDE8F0818E
:10314000F0B50F460646A1B01946384615461C464E
:10315000FFF7AEFD28B1304621B0BDE8F040FFF7E3
:103160009CBD224639466846FFF7DAFD294608A885
:10317000FFF7D6FD10A82146FFF78FFD012318A801
:103180001093FFF78AFD2246684608A9FFF7D4FD91
:1031900030B92246304610A9FFF7C2FD21B0F0BD7C
:1031A000009BDA0709D421466846FFF7E1FC224676
:1031B000294610A8FFF7E9FCE5E7089BDB0707D4E1
:1031C000214608A8FFF7D4FC2246294618A8F1E7B3
:1031D000002823461CDD08AA69466846FFF7D3FD90
:1031E00021466846FFF7C4FC224618A910A8FFF73D
:1031F000A3FD002805DA10A923462A460846FFF752
:103200009DFC10A92346084618AAFFF7BCFDCEE78F
:103210006A4608A8FFF7B7FD214608A8FFF7A8FCF3
:10322000224610A918A8FFF787FD002805DA18A97B
:1032300023462A460846FFF781FC18A9234608467C
:1032400010AAFFF7A0FDBFE7F0B515461C460746DC
:103250000E4689B01A4629466846FFF795FE234672
:103260006A4639463846FFF77FFE23462A466946B6
:103270006846FFF779FE23466A4631463046FFF737
:1032800073FE09B0F0BD2DE9F0478AB0DDF848A023
:103290001446554680461F46894615F9046B02467A
:1032A0002B46214602A80096FFF7A1FD02A952462F
:1032B0000846FFF769FE53464146404602AAFFF71B
:1032C00053FE53462146204602AAFFF74DFE2B46E9
:1032D0004A46394638460096FFF789FD5246394638
:1032E00002A8FFF751FE02A92B4642460846009667
:1032F000FFF77DFD02A92B46224608460096FFF700
:1033000076FD2B464246214620460096FFF76FFD8C
:103310005346224649464846FFF726FE2B4641467D
:10332000204602AA0096FFF762FD53462246394620
:103330003846FFF719FE2B464A463946384600966E
:10334000FFF755FD3246204602A9FFF7E9FC0AB017
:10335000BDE8F087F8B50E46D11C48BF911D144654
:1033600041F38701FFF799FC0025671E6AB2A2426C
:1033700005F1010500DBF8BDBB1A23F00301B25CC7
:1033800003F00303DB009A40435813434350EDE737
:103390002DE9F0471F46B3F90230064613F11F042A
:1033A00048BF03F13E046511DC1D48BF03F10E0464
:1033B000E410944228BF144688464FFA85F94946DE
:1033C000FFF76BFC224641463046FFF7C3FFB7F9D3
:1033D0000220E300B2EBC40F20D200219B1A06EBBF
:1033E0008504C3F12005A6420FD324374A4631464F
:1033F0003846FFF7A1FC012810D04B463A4631462B
:103400003046BDE8F047FFF7BEBC54F8040D20FA83
:1034100003F20A43226000FA05F1E4E7BDE8F08711
:103420002DE9F04FFDB0869D1F46B5F9023081466B
:1034300013F11F0648BF03F13E06002346F347166B
:10344000079206F1FF3B7CAA95F9004002EB8B0244
:1034500042F8C03C42F8A03C049195F90120014695
:103460000DF190086CA848F82B30FFF773FFA3000C
:1034700095F9012006936CAB03EB8403184609EB26
:1034800002010393FFF766FF394695F901204CA826
:10349000FFF760FF95F9012054A8B918FFF75AFF0C
:1034A00021464CA8FFF704FC18B100207DB0BDE810
:1034B000F08F214654A8FFF7FBFB02900028F4D1BF
:1034C00005F1240A324650464CA9FFF735FC012885
:1034D000EBD13246504654A9FFF72EFC0128059047
:1034E000E3D13346524654A91CA8FFF729FE029B9C
:1034F0000CAF47F82B3038462B46079A0499FFF754
:1035000047FF3946384653461CAA0096FFF71CFD74
:103510000DF5B87953461CAA4CA914A80096FFF7DC
:1035200013FD484622466CA9FFF7FAFBA30009EBFE
:10353000030B584622460399FFF7F2FB05F14403BB
:103540001946224634A80393FFF7EAFB039BA10028
:10355000591822463CA8FFF7E3FB49462B1D34AA25
:103560001CA800940493FFF742FC5B464A463CA922
:1035700034A80095FFF787FE1CA9084623462A1D9C
:10358000FFF7DEFD1CAA594648462B46FFF75CFEB6
:10359000029B31460893039B384609936CABCDE9F7
:1035A0000A39FFF79DFB3146814614A8FFF798FBC7
:1035B0008145B8BF81461FFA89F909F1FF3109B287
:1035C00038460291FFF783FB0299074614A8FFF7DC
:1035D0007EFB003818BF0120003F18BF01270DF106
:1035E000200B47EA40075BF82770224639464046E1
:1035F000FFF796FBA300F91822462CA8FFF790FBD3
:1036000021461CA8FFF749FB059BA9F102091C9361
:103610000FFA89F9B9F1000F21DA1CA908462346EF
:10362000049AFFF78DFD2B4640461CAA2CA9FFF7F4
:103630000BFE324641465046FFF77EFB012805D07F
:103640003346524641464046FFF79DFB22464046E0
:103650004CA9FFF786FBB0FA80F0400926E72B461D
:103660001CAA4046D5F8A4702CA9B84749460CA816
:10367000FFF72DFB4946074614A8FFF728FB003843
:1036800018BF0120003F18BF012708AB47EA4007D9
:1036900053F8277027B32246394634A8FFF740FB7A
:1036A000069B2246F9183CA8FFF73AFB2B461CAABA
:1036B0003CA934A8FFF7C8FD4146049B34AA44A89E
:1036C0000094FFF794FB42462CAB3CA934A800952C
:1036D000FFF7D9FD1CA92B46084644AAFFF744FC76
:1036E00009F1FF3994E7F8B50C4610B1F9B10AB900
:1036F0000120F8BD00278D1800F12806836E5A1CA2
:10370000826614F8011B03443F2A83F828100BD962
:103710003146FDF757FAD0E9083213F5007342F14C
:103720000002C0E908328766A542E7D1E0E7084613
:10373000DFE7F8B50C460546002854D0002953D0E1
:103740008B6ED1E90821D800121841F10001C4E9BB
:1037500008218022581C38282344A0664FF0000717
:1037600083F8282004F128060AD9C0F1400239461E
:10377000304400F03BF831462046FDF723FAA766B7
:10378000A06E0021C0F13802304400F02FF8236A07
:1037900031461ABA636A62661A0A84F8633084F89A
:1037A00062201A0C1B0E84F86030204684F86120D9
:1037B000FDF708FA2B1D211F243551F8042F04337F
:1037C000100E03F8080C100C03F8070C100A03F88D
:1037D000060C03F8052CAB42EFD1204670220021E5
:1037E00000F004F80120F8BD0846FCE700F07EB9BF
:1037F000038B13F0070305D10368002B0CBF0020D7
:1038000003207047022B05D1408BB0FA80F04009AD
:1038100080007047012B05D10368002B0CBF0020EE
:10382000052070470020704710B50C4600B111B953
:103830006FF0150010BD081D00F093F80028F9D1B5
:10384000A368032BF6D9F3E72DE9F0410D460746AF
:103850001946281D90461E4600F094F8044638B1DB
:103860003346424629463846A446BDE8F041604703
:10387000BDE8F08110B4EFF31182202484F31288A4
:10388000BFF36F8F416110BC0121FDF707BB38B555
:103890000C46054658B151B10B6843B14B6833B182
:1038A0001C22002100F022F900202C6138BD6FF0AD
:1038B0001500FBE770B505460E46FFF7B5FF041E81
:1038C00014DBEFF31182202383F31288BFF36F8F91
:1038D0004FF6FF716B8B2C8B8B4204F0070407D1E2
:1038E00082F31188BFF36F8F6FF00A04204670BD1A
:1038F000022C0CD101336B8382F31188BFF36F8FDD
:103900000023224631462846FFF79EFFEEE7062CAD
:1039100014D8DFE804F004131313041A040000237E
:1039200033606B683BB9C5E90066ACB90221284633
:10393000FDF7B4FADAE71E606E60F6E782F31188ED
:10394000BFF36F8F6FF00404D0E782F31188BFF3E9
:103950006F8F6FF08504C9E782F31188BFF36F8F13
:10396000C4E7034658B1426802F00302012A03D0BB
:10397000032A04D1026812B10020986070476FF0EA
:10398000150070474268034602F00302032A4FF015
:103990000002816014BF104600685A60704770478B
:1039A0007047002930B4044618460BDBA56808446C
:1039B000A84207D8E0686468214484682468A44663
:1039C00030BC60476FF0150030BC704700290346DB
:1039D00010B410460BDB9C680844A04207D8D86896
:1039E0005B68194483689B682BB110BC18476FF063
:1039F000150010BC70476FF05700FAE708B5C068B3
:103A00008368DB689847407908BD012801D1EFF34E
:103A1000058300F02DB901460068FFF7F6BF08B531
:103A2000FDF776FBBDE8084000F000B870470021C4
:103A30000120FFF7EABF61B662B680F31188BFF3D9
:103A40006F8F7047EFF31180202383F31288BFF349
:103A50006F8F704772B6002383F31188BFF36F8FA7
:103A6000BFF34F8F20BF80F31188BFF36F8F62B613
:103A7000704740E800F313F4803FD8B208BF6FF0FE
:103A80001500704730B50C684B6885B00A894D89C0
:103A90000094013B24F01F04234402F01F0242EA79
:103AA000451223F01F0369468DF808200393FDF7A4
:103AB000B5FD05B030BD10B55AB10139841810F804
:103AC000012B11F8013FA04201D09A42F7D0D01A41
:103AD00010BD1046FCE710B5431E0A44914200D1C8
:103AE00010BD11F8014B03F8014FF7E70346C9B2C7
:103AF0000244934200D1704703F8011BF9E70C22FE
:103B00000369C9B201FB0233186C00F0070070476B
:103B100070B5C9B20369EFF31185202484F31288CC
:103B2000BFF36F8F0C2606FB0134246C14F0C00425
:103B300008D0A24206D085F31188BFF36F8F4FF0F3
:103B4000FF3070BD012206FB01331A6485F3118832
:103B5000BFF36F8F436803EBC1035B689847002096
:103B6000EFE78022FFF7D4BFF8B5069F0469C9B21A
:103B7000EFF31186202585F31288BFF36F8F0C2594
:103B800005FB0144256C05F0070CBCF1010F0CD1BD
:103B9000276486F31188BFF36F8FC4E90E2343684F
:103BA00053F8313098470020F8BD05F0C005AF420A
:103BB00086F31188BFF36F8F0CBF6FF077004FF063
:103BC000FF30F1E713B580240094FFF7CDFF02B07A
:103BD00010BD6FF08500704710B41C240069CBB293
:103BE00003FB0400002110BC10470020FEF788BA38
:103BF000002000F020B8022804D0042804D10020BE
:103C0000FDF75ABF0120FBE7704708460021FEF789
:103C100049B8084611461A4609B1FEF743B86FF095
:103C2000150070478068203820F00F00203870475A
:103C3000004700F002B8FEF7D1B908B1FDF7A8BE01
:103C40007047704740B1C368587810F001001EBF3C
:103C50001878B0FA80F040097047EFF31183202301
:103C600083F31288BFF36F8FFEE708B5FFF7F5FF08
:103C700010B5EFF31184202383F31288BFF36F8F05
:103C8000FFF7F3FF84F31188BFF36F8F10BD10B5FA
:103C9000D0E9003433B90020E268537843F00103DF
:103CA000537010BD204698470028F4D00028B8BFB4
:103CB0004042FF28A8BFFF20E3681870ECE7FFF739
:103CC00015BFFFF708BF7047EFF30580003818BF36
:103CD0000120704710B5FEF70FFD0446FEF714FDF6
:103CE00024B1E368181A20EAE07010BD6FF00040BC
:103CF000FBE77047E5180000000000005D1A0000B7
:103D0000143D00007D1D000000000000911C00001B
:103D1000283D000095490000C4480000CC45000043
:103D20007C00002010010020A249000000000000DB
:103D3000B44500007E0000200000000000000000EC
:103D40002F3A0000000000002F3A000000000000A1
:103D50002F3A0000000000002F3A00000000000091
:103D60002F3A0000000000002F3A00000000000081
:103D70002F3A0000000000002F3A00000000000071
:103D80002F3A0000000000002F3A00000000000061
:103D90002F3A0000000000002F3A00000000000051
:103DA0002F3A0000000000002F3A00000000000041
:103DB0002F3A0000000000002F3A00000000000031
:103DC0002F3A0000000000002F3A00000000000021
:103DD0002F3A0000000000002F3A00000000000011
:103DE0002F3A0000000000002F3A00000000000001
:103DF0002F3A0000000000002F3A000000000000F1
:103E00002F3A0000000000002F3A000000000000E0
:103E10002F3A0000000000002F3A000000000000D0
:103E20002F3A0000000000002F3A000000000000C0
:103E30002F3A0000000000002F3A000000000000B0
:103E40002F3A0000000000002F3A000000000000A0
:103E50002F3A0000000000002F3A00000000000090
:103E60002F3A0000000000002F3A00000000000080
:103E70002F3A0000000000002F3A00000000000070
:103E80002F3A0000000000002F3A00000000000060
:103E90002F3A0000000000002F3A00000000000050
:103EA0002F3A0000000000002F3A00000000000040
:103EB0002F3A0000000000002F3A00000000000030
:103EC0002F3A0000000000002F3A00000000000020
:103ED0002F3A0000000000002F3A00000000000010
:103EE0002F3A0000000000002F3A00000000000000
:103EF0002F3A0000000000002F3A000000000000F0
:103F00002F3A0000000000002F3A000000000000DF
:103F10002F3A0000000000002F3A000000000000CF
:103F20002F3A0000000000002F3A000000000000BF
:103F30002F3A0000000000002F3A000000000000AF
:103F40002F3A0000000000002F3A0000000000009F
:103F50002F3A0000000000002F3A0000000000008F
:103F60002F3A0000000000002F3A0000000000007F
:103F70002F3A0000000000002F3A0000000000006F
:103F80002F3A0000000000002F3A0000000000005F
:103F90002F3A0000000000002F3A0000000000004F
:103FA0002F3A0000000000002F3A0000000000003F
:103FB0002F3A0000000000002F3A0000000000002F
:103FC0002F3A0000000000002F3A0000000000001F
:103FD0002F3A0000000000002F3A0000000000000F
:103FE0002F3A0000000000002F3A000000000000FF
:103FF0002F3A0000000000002F3A000000000000EF
:104000002F3A0000000000002F3A000000000000DE
:104010002F3A0000000000002F3A000000000000CE
:104020002F3A0000000000002F3A000000000000BE
:104030002F3A0000000000002F3A000000000000AE
:104040002F3A0000000000002F3A0000000000009E
:104050002F3A0000000000002F3A0000000000008E
:104060002F3A0000000000002F3A0000000000007E
:104070002F3A0000000000002F3A0000000000006E
:104080002F3A0000000000002F3A0000000000005E
:104090002F3A0000000000002F3A0000000000004E
:1040A0002F3A0000000000002F3A0000000000003E
:1040B0002F3A0000000000002F3A0000000000002E
:1040C0002F3A0000000000002F3A0000000000001E
:1040D0002F3A0000000000002F3A0000000000000E
:1040E0002F3A0000000000002F3A000000000000FE
:1040F0002F3A0000000000002F3A000000000000EE
:104100002F3A0000000000002F3A000000000000DD
:104110002F3A0000000000002F3A000000000000CD
:104120002F3A0000000000002F3A000000000000BD
:104130002F3A0000000000002F3A000000000000AD
:104140002F3A0000000000002F3A0000000000009D
:104150002F3A0000000000002F3A0000000000008D
:104160002F3A0000000000002F3A0000000000007D
:104170002F3A0000000000002F3A0000000000006D
:104180002F3A0000000000002F3A0000000000005D
:104190002F3A0000000000002F3A0000000000004D
:1041A0002F3A0000000000002F3A0000000000003D
:1041B0002F3A0000000000002F3A0000000000002D
:1041C0002F3A0000000000002F3A0000000000001D
:1041D0002F3A0000000000002F3A0000000000000D
:1041E0002F3A0000000000002F3A000000000000FD
:1041F0002F3A0000000000002F3A000000000000ED
:104200002F3A0000000000002F3A000000000000DC
:104210002F3A0000000000002F3A000000000000CC
:104220002F3A0000000000002F3A000000000000BC
:104230002F3A0000000000002F3A000000000000AC
:104240002F3A0000000000002F3A0000000000009C
:104250002F3A0000000000002F3A0000000000008C
:104260002F3A0000000000002F3A0000000000007C
:104270002F3A0000000000002F3A0000000000006C
:104280002F3A0000000000002F3A0000000000005C
:104290002F3A0000000000002F3A0000000000004C
:1042A0002F3A0000000000002F3A0000000000003C
:1042B0002F3A0000000000002F3A0000000000002C
:1042C0002F3A0000000000002F3A0000000000001C
:1042D0002F3A0000000000002F3A0000000000000C
:1042E0002F3A0000000000002F3A000000000000FC
:1042F0002F3A0000000000002F3A000000000000EC
:104300002F3A0000000000002F3A000000000000DB
:104310002F3A0000000000002F3A000000000000CB
:104320002F3A0000000000002F3A000000000000BB
:104330002F3A0000000000002F3A000000000000AB
:104340002F3A0000000000002F3A0000000000009B
:104350002F3A0000000000002F3A0000000000008B
:104360002F3A0000000000002F3A0000000000007B
:104370002F3A0000000000002F3A0000000000006B
:104380002F3A0000000000002F3A0000000000005B
:104390002F3A0000000000002F3A0000000000004B
:1043A0002F3A0000000000002F3A0000000000003B
:1043B0002F3A0000000000002F3A0000000000002B
:1043C0002F3A0000000000002F3A0000000000001B
:1043D0002F3A0000000000002F3A0000000000000B
:1043E0002F3A0000000000002F3A000000000000FB
:1043F0002F3A0000000000002F3A000000000000EB
:104400002F3A0000000000002F3A000000000000DA
:104410002F3A0000000000002F3A000000000000CA
:104420002F3A0000000000002F3A000000000000BA
:104430002F3A0000000000002F3A000000000000AA
:104440002F3A0000000000002F3A0000000000009A
:104450002F3A0000000000002F3A00003D25000028
:10446000313C0000000000002F3A00000000000076
:104470002F3A0000000000002F3A0000000000006A
:104480002F3A0000000000002F3A0000000000005A
:104490002F3A0000000000002F3A0000000000004A
:1044A0002F3A0000000000002F3A0000000000003A
:1044B0002F3A0000000000002F3A0000000000002A
:1044C0002F3A0000000000002F3A0000000000001A
:1044D0002F3A0000000000002F3A0000000000000A
:1044E0002F3A0000000000002F3A000000000000FA
:1044F0002F3A0000000000002F3A000000000000EA
:104500002F3A0000000000002F3A000000000000D9
:104510002F3A0000000000002F3A000000000000C9
:104520002F3A0000000000002F3A000000000000B9
:104530002F3A0000000000002F3A000000000000A9
:104540002F3A0000000000002F3A00000000000099
:104550002F3A0000000000002F3A00000000000089
:104560002F3A0000E1210000313C00000000000073
:104570002F3A0000000000002F3A00000000000069
:104580002F3A0000000000002F3A00000000000059
:104590002F3A0000000000002F3A00000000000049
:1045A0002F3A0000000000002F3A00000000000039
:1045B0002F3A0000091D0000133C00000B3C0000D6
:1045C000791C0000691C0000811C0000D33B000026
:1045D000633B0000C53B000000000000FF3A000004
:0845E0000000000000000000D3
:1045F00005000000040000000100000000000000B1
:104600000338FDD8704700000000000000000000E3
:104610000338FDD8704700000200000005000000CC
:10462000010000002B490000DC47000008200001C9
:10463000FFFFFFFFFFFFFFFFFFFFFFFF0000000086
:10464000000000000000000001000000FFFFFFFF6D
:10465000512563FCC2CAB9F3849E17A7ADFAE6BC24
:10466000FFFFFFFFFFFFFFFF00000000FFFFFFFF56
:1046700096C298D84539A1F4A033EB2D817D0377FC
:10468000F240A463E5E6BCF847422CE1F2D1176B97
:10469000F551BF376840B6CBCE5E316B5733CE2B6A
:1046A000169E0F7C4AEBE78E9B7F1AFEE242E34F99
:1046B0004B60D2273E3CCE3BF6B053CCB0061D65D6
:1046C000BC86987655BDEBB3E7933AAAD835C65A5F
:1046D000912F0000E3300000390A0000982F8A4231
:1046E00091443771CFFBC0B5A5DBB5E95BC2563944
:1046F000F111F159A4823F92D55E1CAB98AA07D85C
:10470000015B8312BE853124C37D0C55745DBE727E
:10471000FEB1DE80A706DC9B74F19BC1C1699BE4FE
:104720008647BEEFC69DC10FCCA10C246F2CE92D8E
:10473000AA84744ADCA9B05CDA88F97652513E98B2
:104740006DC631A8C82703B0C77F59BFF30BE0C6B9
:104750004791A7D55163CA0667292914850AB72747
:1047600038211B2EFC6D2C4D130D385354730A65E4
:10477000BB0A6A762EC9C281852C7292A1E8BFA2BB
:104780004B661AA8708B4BC2A3516CC719E892D123
:10479000240699D685350EF470A06A1016C1A419A6
:1047A000086C371E4C774827B5BCB034B30C1C39A5
:1047B0004AAAD84E4FCA9C5BF36F2E68EE828F7464
:1047C0006F63A5781478C8840802C78CFAFFBE907E
:1047D000EB6C50A4F7A3F9BEF27871C65B00000041
:1047E0000A000000000000000000000000C00000FF
:1047F000283D00000100000000C00000000800008B
:10480000283D00000200000000C0000000B00A00C7
:10481000283D00000300000000C8000000A80A00B6
:10482000283D00000400000000C8000000A80A00A5
:10483000283D00000500000000700B0000B00A00D9
:10484000283D00000600000000700B00000800007A
:10485000283D00000700000000780B0000A80A00B7
:10486000283D000008000000002016000010000095
:10487000283D000009000000003016000020000064
:10488000283D00000000002000000000060001009C
:104890000200000098480000000000008649000067
:1048A00002000000E04F1600000000208E490000CA
:1048B00021000000E0EF0220E5190000B51900001A
:1048C00000000000051B0000291A0000EB3B00005F
:1048D000F13B00001000000001FF00006501000036
:1048E00000100000F43C0000F43C0000043D000017
:1048F0000C3D0000143D0000143D000001000200CA
:1049000010001100120020002100220023002400CA
:104910003000310032003300FFFF2A8648CE3D03CD
:104920000107002A8648CE3D0201003059301306A7
:10493000072A8648CE3D020106082A8648CE3D0356
:104940000107034200042ACB403CE8FEED5BA4498A
:1049500095A1A91DAEE8DBBE1937CD14FB2F245756
:1049600037E5953988D994B9D65AEBD7CDD5308A61
:10497000D6FE48B24A6A810EE5F07D8B6834CC3AA7
:104980006AFC538EFAC1464C4153485F3000535283
:10499000414D5F3000636C6F636B40313065303088
:1049A00030007272616D2D636F6E74726F6C6C6526
:1049B0007240353030346230303000000100000089
:1049C000FFFFFFFFED3A0000E4470000351D000047
:1049D00000000000FF0000000090D0030000000075
:1049E0006700000000000000000000000000000060
:1049F00000000000000000000000000000000000B7
:104A000000000000000000000000000000000000A6
:104A10000000000000000000000000000000000096
:104A20000000000000000000000000000000000086
:104A300074000020740000200000000015E015E064
:10C000003DB8F39600C0000000080000A8120A0026
:10C0100000010000000163000000000000000000BB
:10C02000FFFFFFFFFFFFFFFFFFFFFFFFFFFFFFFF20
:10C03000FFFFFFFFFFFFFFFFFFFFFFFFFFFFFFFF10
:10C04000FFFFFFFFFFFFFFFFFFFFFFFFFFFFFFFF00
:10C05000FFFFFFFFFFFFFFFFFFFFFFFFFFFFFFFFF0
:10C80000A0620220999B0300659503007D9B0300B5
:10C810007D9B03007D9B03007D9B03007D9B0300AC
:10C82000000000000000000000000000459D030023
:10C830007D9B030000000000AD9C03007D9B030076
:10C84000859F0300859F0300859F0300859F03004C
:10C85000859F0300859F0300859F0300859F03003C
:10C86000859F0300859F0300859F0300859F03002C
:10C87000859F0300859F0300859F0300859F03001C
:10C88000859F0300859F0300859F0300859F03000C
:10C89000859F0300859F0300859F0300859F0300FC
:10C8A000859F0300859F0300859F0300859F0300EC
:10C8B000859F03007DB60400859F0300859F0300CC
:10C8C000859F0300859F0300859F0300859F0300CC
:10C8D000859F0300859F0300859F0300859F0300BC
:10C8E000859F0300859F0300859F0300859F0300AC
:10C8F000859F0300859F0300859F0300859F03009C
:10C90000859F0300859F0300859F0300859F03008B
:10C91000859F0300859F0300859F0300859F03007B
:10C92000859F0300859F0300859F0300859F03006B
:10C93000859F0300859F0300859F0300859F03005B
:10C94000859F0300859F0300859F0300859F03004B
:10C95000859F0300859F0300859F0300859F03003B
:10C96000859F0300859F0300859F0300859F03002B
:10C97000859F0300859F0300859F0300859F03001B
:10C98000859F0300859F0300859F0300859F03000B
:10C99000859F0300859F0300859F0300859F0300FB
:10C9A000859F0300859F0300859F0300859F0300EB
:10C9B000859F0300859F0300859F0300859F0300DB
:10C9C000859F0300859F0300859F0300859F0300CB
:10C9D000859F0300859F0300859F0300859F0300BB
:10C9E000859F0300859F0300859F0300859F0300AB
:10C9F000859F0300859F0300859F0300859F03009B
:10CA0000859F0300859F0300859F0300859F03008A
:10CA1000859F0300859F0300859F0300859F03007A
:10CA2000859F0300859F0300859F0300859F03006A
:10CA3000859F0300859F0300859F0300859F03005A
:10CA4000859F0300859F0300859F0300859F03004A
:10CA5000859F0300D5C60700859F0300859F0300BF
:10CA6000859F0300859F030005C70700859F03007E
:10CA7000859F0300859F0300859F0300859F03001A
:10CA8000859F0300859F0300859F0300859F03000A
:10CA9000859F0300859F0300859F0300859F0300FA
:10CAA000859F0300859F0300859F0300859F0300EA
:10CAB000859F0300859F0300859F0300859F0300DA
:10CAC000859F0300859F0300859F0300859F0300CA
:10CAD000859F0300859F0300859F0300859F0300BA
:10CAE000859F0300859F0300859F0300859F0300AA
:10CAF000859F0300859F0300859F0300859F03009A
:10CB0000859F0300859F0300859F0300859F030089
:10CB1000859F0300859F0300859F0300859F030079
:10CB2000859F0300859F0300859F0300859F030069
:10CB3000859F0300859F0300859F0300859F030059
:10CB4000859F0300859F0300859F0300859F030049
:10CB5000859F0300859F0300859F0300859F030039
:10CB6000859F0300859F0300859F0300859F030029
:10CB7000859F0300859F0300859F0300859F030019
:10CB8000859F0300859F0300859F0300859F030009
:10CB9000859F0300859F0300D9C80700859F030078
:10CBA000859F0300859F0300859F0300859F0300E9
:10CBB000859F0300859F0300859F0300859F0300D9
:10CBC000859F0300859F0300859F0300859F0300C9
:10CBD000859F0300EFC60700859F0300859F030024
:10CBE000859F0300859F0300859F0300859F0300A9
:10CBF000859F0300859F0300859F0300859F030099
:10CC0000859F0300859F0300859F0300859F030088
:10CC1000859F0300859F0300859F0300859F030078
:10CC2000859F0300859F0300859F0300859F030068
:10CC3000859F0300859F0300859F0300859F030058
:10CC4000859F0300859F0300859F0300859F030048
:10CC5000859F0300859F0300859F0300859F030038
:10CC6000859F0300859F0300859F0300859F030028
:10CC7000859F0300859F0300859F0300FFFFFFFF43
:10CC80002DE9F04F2DED0C8BFFB0CDE90B2390F883
:10CC9000B4300446012BB0EE40AAB0EE608AF0EE4C
:10CCA00041CAB0EE619A8846D0ED2C8A05D0B4EE28
:10CCB000E81AF1EE10FA40F1218608F54979484664
:10CCC00001F0F0FDF0EE400AB0EE680A80F06AF87C
:10CCD0004846F0EE409A01F015FEF0EE400AB0EE44
:10CCE000690A80F042F8D8EDC96A98EDCA7AF4EE84
:10CCF000406AD8EDCB7AF1EE10FAB4EE407A0CBF70
:10CD000001230023F1EE10FAF4EE407A8DF844305E
:10CD10000CBF01230023F1EE10FA8DF845300CBF53
:10CD20000123002325A911A8F0EE409A8DF8463082
:10CD300001F002FA061E00F0128740F3838719A95A
:10CD400025AA049102EB860052F8043B03F26B53D0
:10CD500008EB83035B68824241F8043BF4D114ADD5
:10CD6000009508F5AC52B0EE680A494694F8B40054
:10CD700004323AAB01F0F8F912AB294634AA3AA8CA
:10CD800001F0E0F8129BB1EE49CA4FEA430BBBF148
:10CD9000000F0DDD00270DF1D00A9AED000A8CEE90
:10CDA000000A66F0B1FC0137BB45AAEC010AF4D1D8
:10CDB00094F8B430032B00F0A386002240924192F5
:10CDC00042924392449245921A0600F10D875B000D
:10CDD00013F0FF0320D09A0008F5AC511C313AA89B
:10CDE0007FF005FE94F8B400B0B13AAA40A907B2AA
:10CDF000830002EB800C52F8040B944541F8040BBD
:10CE0000F9D13AAA134402EBC70743AA53F8041B0B
:10CE10009F4242F8041BF9D1D8EDC96A98EDCA7A4D
:10CE2000F4EE696AD8EDCB7AF1EE10FAB4EE697AD5
:10CE30000CBF01230023F1EE10FAF4EE697A8DF8AD
:10CE400044300CBF01230023F1EE10FA8DF8453079
:10CE50000CBF0123002325A911A88DF8463001F04D
:10CE60006BF9002800F05B8640F3E78625A98C4625
:10CE70000DF1E80E870001EB80035CF8042B7EA81F
:10CE800000EB820252F8FC2C63454EF8042BF4D1DF
:10CE90003AAAD01951F8042B0DF5FC7C0CEB820258
:10CEA00052F8F02C8B4240F8042BF3D16EAB069372
:10CEB000D8EDC96A98EDCA7AF4EE696AD8EDCB7AF2
:10CEC000F1EE10FAB4EE697A0CBF01230023F1EE03
:10CED00010FAF4EE697A8DF844300CBF0123002378
:10CEE000F1EE10FA8DF845300CBF0123002325A97F
:10CEF00011A88DF8463001F01FF9031E039300F0CE
:10CF00001E8640F396861CAA11460592039A25AB0D
:10CF100003EB820053F8042B02F25D5208EB82020D
:10CF20001268984241F8042BF4D13AAB1F44002E0A
:10CF300097ED00BA0DDD94ED197A049A134602EBD1
:10CF40008602D3ED007A67EE877AE3EC017A9A42A3
:10CF5000F7D1B5EEC08AF1EE10FA00F1368594ED06
:10CF6000200A3AEE400A7FF0F6FEF0EE407A94EDA9
:10CF70001E0A30EE480A17EE909A7FF0ECFE10EE93
:10CF8000107A38460EF0F8FDEBA3D3E900230FF03A
:10CF9000DBF870B148460EF0EFFDE7A3D3E90023BC
:10CFA0000FF0D2F828B1F5EEC0CAF1EE10FA00F198
:10CFB0003886D4ED34BA9FEDDC7AD4ED379ADFEDC4
:10CFC000DB7AD4ED36AA69EE879A6AEE87AAEBEE91
:10CFD000A79AD4ED2C6AE9EEA7AAB0EE006AF0EEAB
:10CFE0006A7AF4EEEC6AD9EE867AF1EE10FACDEDBB
:10CFF0001F7A05D4F5EEC0CAF1EE10FAC0F2EA8548
:10D00000039B05991FA89A007FF0F1FC40220021A4
:10D010004EA87FF013FDD4ED2F7A0023FDEEE77AC2
:10D02000289329932A932B9317EE903A4FF07E5230
:10D03000591E03EB81030F937EA9013B0893002E39
:10D0400001EB830343F8C02C0DDD9FEDB97A049A00
:10D05000134602EB8602D3ED007A67EE877AE3ECA3
:10D06000017A9A42F7D1049FB0EE4C0A38462B461B
:10D07000314622AA01F078FCD4ED017AD4ED2F5A82
:10D08000FDEEE77AD4ED006A17EE90EAFDEEE57A60
:10D09000FDEEE66A129B34AA02EB830393ED006A6D
:10D0A0009DED345ADFEDA94A94ED1E0AB7EE007AE1
:10D0B00017EE90CA384616EE907A20EE240A77EEE4
:10D0C000456A37EE467ADDF888900DF1A00A0AEB42
:10D0D0008C0C4CF8049C07F1FF3C07EB8C070DF51A
:10D0E000FC7909EB870707ED315A0EF1FF370EEB9C
:10D0F000870E0AEB8C0C09EB8E0E0AEB8707CCED42
:10D10000006A2B46314620EE090A0EED316A87EDA2
:10D11000007A22AA8DED336A01F026FC12AB294673
:10D1200016AA22A800F024FF139B002B14DD16AAD8
:10D1300002EB830917461346D3ED007AF1EE677AC6
:10D14000E3EC017A9945F7D197ED000A66F0DCFA35
:10D15000A7EC010AB945F7D1D4ED2E7AFDEEE77AB6
:10D160009FED7ACADDED285A9DED296ADDED2A6A28
:10D170009DED2B7A17EE903A25EE8C5A8DED476A8D
:10D18000CDED486A26EE0C6A66EE8C6A8DED497A22
:10D1900027EE0C7A169A03EB83037EA901EB830337
:10D1A00094ED1E0A43F8D42CCDED465A8DED4A5A23
:10D1B0008DED4B6ACDED4C6A8DED4D7A01F07CFC26
:10D1C000002800F0CF835B4B93ED00CA07939FEDDF
:10D1D0005F0A31462B4629EE000A049822AA30AE97
:10D1E0000A9601F0C1FB059E2946324612AB22A8E1
:10D1F00000F0BEFEDDED166AB7EE007AD6ED007ADD
:10D20000D4ED2E5A36EEC76A67EEE67AFDEEE56A91
:10D2100016EE906A04EB8601D1ED2F6AA6EE8C7AA9
:10D2200067EE877A099128A901EB860C7EA94EAF9B
:10D230000DF1B00901EB8606D4ED1E2A94ED303ACB
:10D24000D4ED313A94ED324AD4ED334A4D463B4663
:10D2500006ED356A4CED017A30A846AAB3EC015AC6
:10D26000D3ED037AF2EC015A63EEA77A93ED076AE5
:10D2700092ED037AE5EE037AD3ED0B6A2CEE077A92
:10D28000E6EE047AA5EEA27AE6EEA47A52A99942D5
:10D29000A5EC017AE0EC017AE0D104F1C0034FF093
:10D2A000000C1D46DDF818E04EA8CDE90D7E0DF10D
:10D2B000C00A5EAA04F1400BFAEC017AB9EC017ADB
:10D2C000B0EC014A77EE877A264617462346D0ED22
:10D2D000034A90ED075AD0ED0B5AE5EC017AD3EDF5
:10D2E000037A93ED026A64EEA77AD3ED046AE6EE60
:10D2F000047A93ED057AE6EE857A3946E7EE257AEB
:10D3000010339B45C1ED007A07F11007E7D1B2EC6D
:10D31000014A7746D2ED034A92ED075AD2ED0B5AF5
:10D320004EAB15E0AFF3008072F97F3F17B7D138ED
:10D330000000614514130020FCA9F1D24D62703F3A
:10D34000CDCC4CBD6666863F0000C84200000000A0
:10D35000B3EC016AD3ED037A64EEA77AD3ED076AE2
:10D36000E6EE047A93ED0B7AE6EE857A3946E7EE3F
:10D37000257AC1ED007A52A9994207F11007E7D149
:10D380000CF1010CBCF1040F0EF1040E94D1DDE997
:10D390000D75099BBFEE000AD3ED2F0A7FF0E5FC67
:10D3A000D4ED2E7AFDEEE77AF0EE400AB7EE000AF1
:10D3B00017EE90AA7FF0F6FCF0EE407A04EB8A03B9
:10D3C000C3ED2F7AD4ED2F7AFDEEE77A17EE903A7F
:10D3D00004EB8303D3ED2F0A1FED270A7FF0C5FC72
:10D3E000D4ED2F7AFDEEE77AF0EE400A17EE90AA20
:10D3F0001FED2C0A7FF0D6FC04EB8A0181ED2F0A89
:10D400009DED284A94ED137ADDED294A9DED2A5AC7
:10D41000DDED2B7A0DF1A00927EE044A67EE244AD0
:10D4200027EE055A4A4627EE277A4EABF2EC017AF0
:10D4300064EE275A27EEA46A67EE856A67EE877A5C
:10D440002CA9914203F1100343ED045A03ED036A42
:10D4500043ED026A43ED017AE8D104F1080A53462C
:10D46000069A4032F5EC017AB7EC017A77EE877ACA
:10D47000AA42E3EC017AF5D1D4ED2F7AFDEEE77AFA
:10D4800017EE903A04EB830393ED2F0A08F63C0263
:10D49000F0EE680A404608F5A36100F085FC94EDC3
:10D4A000017AD4ED007ABDEEC77AFDEEE77A17EE89
:10D4B000102A17EE903A04EB820292ED2F7A04EBD9
:10D4C0008303D3ED2F7ADDED3A6AA7EE4B0A039B77
:10D4D000A6EEE70A002B0EDD03991FAB049A03EBBF
:10D4E0008101B3EC017AF0EE407AE7EE487A994296
:10D4F000E2EC017AF5D1D4ED2F7AFDEEE77A17EE62
:10D50000905A1FED6ECA04EB8503404693ED2F0A37
:10D5100008F6846208F53661F0EE680A8DED28CAD7
:10D520008DED29CA8DED2ACA8DED2BCA00F036FD8E
:10D5300094ED2E7AD4ED006AD4ED017ABDEEC77A6F
:10D54000FDEEE66AFDEEE77A9DED3A6A17EE100A07
:10D5500016EE901A17EE902AB1EE466AB1EE4BBA6B
:10D5600028AB013D03EB850585ED000A28AD05EBF1
:10D57000800005EB810105EB820200ED01CA01ED9F
:10D58000016A02ED01BAB0EE4C7A2346DDED286A5D
:10D590009DED296ADDED2A5A9DED2B5AD3ED037AD4
:10D5A00093ED023A66EE277AD3ED043AE6EE837AFB
:10D5B00093ED054AE5EEA37AF9EC014AE5EE047A2B
:10D5C00010339B45A7EEA47AE8D1D4ED127A37EE5A
:10D5D00027BA30AB04F11802BAEC014ADAED037A4B
:10D5E00066EE277ADAED074AE6EE847A9AED0B7A50
:10D5F000E5EEA47AE5EE077A87EE8B7A5245A3EC46
:10D60000017AE9D11FEDB07A039B2BEE077A002B4C
:10D610001CDD0498059F03463946039D11AA00EBC3
:10D620008505F3EC017A7AEE677AE1EC017AD7EDC1
:10D63000006A67EEA67AF4EEC77AF1EE10FACCBF74
:10D64000012000209D4202F8010BEAD1039911A8A4
:10D6500000F050FE0546002800F07B815FEDC57AA2
:10D66000B0EE67CACDED307ACDED317ACDED327ABC
:10D67000CDED337AF0EE67CAB0EE67DAF0EE67DA36
:10D68000059BD4ED2E7A93ED007AD4ED305A94EDCB
:10D69000316AD4ED326A94ED335AFDEEE77AA7EEA3
:10D6A0000C5AE7EE2D5AA7EE0D6AE7EE2C6A17EE3C
:10D6B000903A84ED335AC4ED305A84ED316AC4EDAA
:10D6C000326A04EB8303D3ED2F0ABFEE000A7FF02A
:10D6D0004CFBD4ED2E7AFDEEE77AF0EE400AB7EE81
:10D6E000000A17EE907A7FF05DFBF0EE407A04EBD3
:10D6F0008703C3ED2F7AD4ED2F7AFDEEE77A17EE8C
:10D70000903A04EB8303D3ED2F0A9FEDD60A7FF006
:10D710002CFBD4ED2F7AFDEEE77AF0EE400A17EEFF
:10D72000907AB7EE000A7FF03DFB04EB87072BEE03
:10D730000D4A6BEE2C4A6BEE0C3A2DEECB5A87ED70
:10D740002F0A0A9BD6ED025A96ED036AD6ED046ABB
:10D7500096ED057AF3EC017AE7EE855AA7EEC46AF6
:10D76000E7EEE46AA7EEE37A10365E4546ED025A2C
:10D7700006ED016AC6ED006A86ED017AE2D155B187
:10D780000F9B94ED147A04EB8303D3ED017A67EEDB
:10D79000877AC3ED017AD4ED2F7AFDEEE77A17EEA2
:10D7A000903AB5EEC08A04EB8302D4ED240AD2EDA0
:10D7B0002F7AF1EE10FA77EEE07A06DDF5EEC07A18
:10D7C000F1EE10FAC8BFC2ED2F0AB5EEC08AF1EE35
:10D7D00010FA00F1D680013B84ED1E8A04EB83032E
:10D7E000D3F8C030089A0B9904EB82020B6092EDDB
:10D7F000020A65F0EFFFF0EE087A20EE270A0C9A95
:10D800001F9B82ED000A84ED20AAC4ED34BAC4ED5A
:10D8100036AAC4ED379A94ED220AC4F8D43001F048
:10D820004BF9002800F0AA810023C4F898300023A7
:10D83000B0EE480A84F8943001F03EF9079BD3ED2E
:10D84000009A002865D0FFEE007AF4EE679AF1EEB8
:10D8500010FA63D1D4ED2F7AFDEEE77A17EE903A05
:10D8600004EB8303D3F8BC30C4ED279AC4F8A0308E
:10D8700094F89430002B67D00022F0EE497AD4F867
:10D88000903084F89420C4F89C30B5EEC08AF1EE54
:10D8900010FAC4ED267AC4ED219A05DDB5EEC09AE2
:10D8A000F1EE10FA00F3E48094ED2F7ABDEEC77A22
:10D8B000F5EEC07A17EE103AF1EE10FA04EB83039E
:10D8C00093ED2F7A05DDB5EEC09AF1EE10FA00F374
:10D8D000F080049B94991A681F9B84ED228A84ED42
:10D8E000247AC4ED238A81ED02CAC1ED038A0A605D
:10D8F0004B607FB0BDEC0C8BBDE8F08FD0ED2B8A78
:10D90000F4EEC18AF1EE10FA58BFF0EE418AFFF74B
:10D91000D4B9B5EEC08AF1EE10FA9BD4D4ED2F7ACB
:10D92000FDEEE77A17EE903AC4ED289A04EB8303F4
:10D93000D3F8BC30C4ED299AC4F89C3094F89430E4
:10D94000C4ED2A9A002B97D1D4ED267A79EE277A66
:10D950009BE7DDED30DA9DED31DADDED32CA9DED8C
:10D9600033CA8DE6D4ED1E7AF5EEC07AF1EE10FAE8
:10D9700000F1348140F351813B4BB7EE00CA07936D
:10D9800025E4F5EEC07AF1EE10FA00F15F81D2EDF8
:10D990002F0A9FED340A7FF0E8F9D4ED2F7AFDEEDF
:10D9A000E77AF0EE400A17EE905A9FED300A7FF0CA
:10D9B000F9F904EB850383ED2F0AD4ED2F7AFDEE00
:10D9C000E77A17EE903A013B06E794ED2F7AFDEEE9
:10D9D000C77A17EE903A04EB8303D4ED1C6AD3EDBB
:10D9E0002F7AF4EEE67AF1EE10FA18D5002E7FF7D2
:10D9F000B6AAD4ED176A049A134602EB8602D3ED59
:10DA0000007A67EEA67AE3EC017A9A42F7D1FDEE4E
:10DA1000C77A17EE903A04EB8303D3ED2F7A9FED8C
:10DA2000137AF4EEC77AF1EE10FA7FF598AA94ED26
:10DA30001D7AB4EEE77AF1EE10FA7FF590AA002E87
:10DA40007FF78DAA94ED187A049A134602EB8602AA
:10DA5000D3ED007A67EE877AE3EC017A9A42F7D148
:10DA6000FFF77DBA0000000014130020A4707D3F72
:10DA700094ED240A01F020F8D4ED2F7A002840F02C
:10DA8000C380FDEEE77A17EE903A04EB8303D4ED02
:10DA9000246A93ED2F7AB4EEE67AF1EE10FA40F2B2
:10DAA0004581D4ED267AF5EEC07AF1EE10FA7FF7D3
:10DAB00010AFD4ED1A6AF4EEE76AF1EE10FA7FF5D2
:10DAC00008AF94ED246AD4ED276AB4EEC76A77EE06
:10DAD000666AF1EE10FA86EEA7AA00F3D080B5EEE2
:10DAE000C0AAF1EE10FA00F1EF80D4ED2F7AFDEE2E
:10DAF000E77A17EE903A04EB830393ED2F7AE8E68A
:10DB000008F5AC5308F5AD501C33143040AA53F857
:10DB1000041B984242F8041BF9D1FFF77DB96EABA4
:10DB20001A46B0EE690A484640A9069300F0D8FDAF
:10DB30006E9B04273A936F9B3B93FFF7B9B908F5A7
:10DB4000AB51B0EE690A4846183100F04FFE012291
:10DB50001CAB8DED1C0A05930392FFF7E6B908F59F
:10DB6000AD51B0EE690A4846143100F03FFE19ABE2
:10DB700001268DED190A0493FFF7F1B894ED220AFE
:10DB800000F09AFFA0B3079BFFEE007A93ED00AA86
:10DB9000B4EE67AAF1EE10FA61D0B0EE480A00F0D8
:10DBA0008BFF002855D0079BFFEE007AD3ED009A3B
:10DBB000F4EE679AF1EE10FA7FF45AAEFFEE007AB7
:10DBC000B4EE67AAF1EE10FA7FF42EAE079BD3ED08
:10DBD000009A4DE601230393FFF718BA704BBFEE8E
:10DBE00000CA0793FFF7F3BA4FF47F72FFF7F4B858
:10DBF000D4ED227AF5EEC07AF1EE10FA2FD440F38C
:10DC0000B980B7EE00AAC8E7FDEEE77A17EE903AC2
:10DC100004EB830393ED2F7A43E7614B0793FFF700
:10DC2000D6BA07EE909A07EE107AC7EE87BAFFF7DA
